{
  "_format": "hh-sol-artifact-1",
  "contractName": "NFTMarketplace",
  "sourceName": "contracts/Main.sol",
  "abi": [
    {
      "anonymous": false,
      "inputs": [
        {
          "indexed": false,
          "internalType": "address",
          "name": "previousAdmin",
          "type": "address"
        },
        {
          "indexed": false,
          "internalType": "address",
          "name": "newAdmin",
          "type": "address"
        }
      ],
      "name": "AdminChanged",
      "type": "event"
    },
    {
      "anonymous": false,
      "inputs": [
        {
          "indexed": true,
          "internalType": "address",
          "name": "beacon",
          "type": "address"
        }
      ],
      "name": "BeaconUpgraded",
      "type": "event"
    },
    {
      "anonymous": false,
      "inputs": [
        {
          "indexed": false,
          "internalType": "uint8",
          "name": "version",
          "type": "uint8"
        }
      ],
      "name": "Initialized",
      "type": "event"
    },
    {
      "anonymous": false,
      "inputs": [
        {
          "indexed": false,
          "internalType": "address",
          "name": "collection",
          "type": "address"
        },
        {
          "indexed": false,
          "internalType": "uint256",
          "name": "tokenId",
          "type": "uint256"
        },
        {
          "indexed": false,
          "internalType": "uint256",
          "name": "amount",
          "type": "uint256"
        }
      ],
      "name": "Minted",
      "type": "event"
    },
    {
      "anonymous": false,
      "inputs": [
        {
          "indexed": false,
          "internalType": "bytes32",
          "name": "orderId",
          "type": "bytes32"
        }
      ],
      "name": "OrderCanceled",
      "type": "event"
    },
    {
      "anonymous": false,
      "inputs": [
        {
          "indexed": false,
          "internalType": "bytes32",
          "name": "orderId",
          "type": "bytes32"
        }
      ],
      "name": "OrderCreated",
      "type": "event"
    },
    {
      "anonymous": false,
      "inputs": [
        {
          "indexed": true,
          "internalType": "address",
          "name": "previousOwner",
          "type": "address"
        },
        {
          "indexed": true,
          "internalType": "address",
          "name": "newOwner",
          "type": "address"
        }
      ],
      "name": "OwnershipTransferred",
      "type": "event"
    },
    {
      "anonymous": false,
      "inputs": [
        {
          "indexed": true,
          "internalType": "address",
          "name": "implementation",
          "type": "address"
        }
      ],
      "name": "Upgraded",
      "type": "event"
    },
    {
      "inputs": [
        {
          "internalType": "bytes32",
          "name": "orderId",
          "type": "bytes32"
        },
        {
          "internalType": "uint256",
          "name": "buyAmount",
          "type": "uint256"
        }
      ],
      "name": "buy",
      "outputs": [],
      "stateMutability": "payable",
      "type": "function"
    },
    {
      "inputs": [
        {
          "internalType": "bytes32",
          "name": "id",
          "type": "bytes32"
        }
      ],
      "name": "cancelOrder",
      "outputs": [],
      "stateMutability": "nonpayable",
      "type": "function"
    },
    {
      "inputs": [
        {
          "internalType": "address",
          "name": "collection",
          "type": "address"
        },
        {
          "internalType": "uint256",
          "name": "tokenId",
          "type": "uint256"
        },
        {
          "internalType": "uint256",
          "name": "amount",
          "type": "uint256"
        },
        {
          "internalType": "address",
          "name": "paymentToken",
          "type": "address"
        },
        {
          "internalType": "uint256",
          "name": "price",
          "type": "uint256"
        }
      ],
      "name": "createOrder",
      "outputs": [],
      "stateMutability": "nonpayable",
      "type": "function"
    },
    {
      "inputs": [
        {
          "internalType": "address",
          "name": "",
          "type": "address"
        }
      ],
      "name": "defaultCollections",
      "outputs": [
        {
          "internalType": "bool",
          "name": "",
          "type": "bool"
        }
      ],
      "stateMutability": "view",
      "type": "function"
    },
    {
      "inputs": [],
      "name": "initialize",
      "outputs": [],
      "stateMutability": "nonpayable",
      "type": "function"
    },
    {
      "inputs": [
        {
          "internalType": "address",
          "name": "collection",
          "type": "address"
        },
        {
          "internalType": "uint256",
          "name": "id",
          "type": "uint256"
        },
        {
          "internalType": "uint256",
          "name": "amount",
          "type": "uint256"
        },
        {
          "internalType": "string",
          "name": "uri",
          "type": "string"
        }
      ],
      "name": "mint",
      "outputs": [],
      "stateMutability": "nonpayable",
      "type": "function"
    },
    {
      "inputs": [],
      "name": "owner",
      "outputs": [
        {
          "internalType": "address",
          "name": "",
          "type": "address"
        }
      ],
      "stateMutability": "view",
      "type": "function"
    },
    {
      "inputs": [],
      "name": "proxiableUUID",
      "outputs": [
        {
          "internalType": "bytes32",
          "name": "",
          "type": "bytes32"
        }
      ],
      "stateMutability": "view",
      "type": "function"
    },
    {
      "inputs": [],
      "name": "renounceOwnership",
      "outputs": [],
      "stateMutability": "nonpayable",
      "type": "function"
    },
    {
      "inputs": [
        {
          "internalType": "address",
          "name": "newOwner",
          "type": "address"
        }
      ],
      "name": "transferOwnership",
      "outputs": [],
      "stateMutability": "nonpayable",
      "type": "function"
    },
    {
      "inputs": [
        {
          "internalType": "address",
          "name": "newImplementation",
          "type": "address"
        }
      ],
      "name": "upgradeTo",
      "outputs": [],
      "stateMutability": "nonpayable",
      "type": "function"
    },
    {
      "inputs": [
        {
          "internalType": "address",
          "name": "newImplementation",
          "type": "address"
        },
        {
          "internalType": "bytes",
          "name": "data",
          "type": "bytes"
        }
      ],
      "name": "upgradeToAndCall",
      "outputs": [],
      "stateMutability": "payable",
      "type": "function"
    }
  ],
  "bytecode": "0x60a06040523073ffffffffffffffffffffffffffffffffffffffff1660809073ffffffffffffffffffffffffffffffffffffffff1681525034801561004357600080fd5b5060805161391a61007b6000396000818161095e015281816109ec01528181610ae601528181610b740152610c24015261391a6000f3fe6080604052600436106100a75760003560e01c80637489ec23116100645780637489ec23146101785780638129fc1c146101a15780638da5cb5b146101b8578063bb7fde71146101e3578063eaf2fdd51461020c578063f2fde38b14610249576100a7565b80630ddeb632146100ac578063194d0de2146100c85780633659cfe6146100f15780634f1ef2861461011a57806352d1902d14610136578063715018a614610161575b600080fd5b6100c660048036038101906100c191906121e8565b610272565b005b3480156100d457600080fd5b506100ef60048036038101906100ea9190612286565b6107de565b005b3480156100fd57600080fd5b5061011860048036038101906101139190612301565b61095c565b005b610134600480360381019061012f9190612474565b610ae4565b005b34801561014257600080fd5b5061014b610c20565b60405161015891906124df565b60405180910390f35b34801561016d57600080fd5b50610176610cd9565b005b34801561018457600080fd5b5061019f600480360381019061019a91906124fa565b610ced565b005b3480156101ad57600080fd5b506101b661103a565b005b3480156101c457600080fd5b506101cd611188565b6040516101da9190612536565b60405180910390f35b3480156101ef57600080fd5b5061020a600480360381019061020591906125b1565b6111b2565b005b34801561021857600080fd5b50610233600480360381019061022e9190612301565b611433565b6040516102409190612654565b60405180910390f35b34801561025557600080fd5b50610270600480360381019061026b9190612301565b611453565b005b600060fc60008481526020019081526020016000206040518060e00160405290816000820160009054906101000a900473ffffffffffffffffffffffffffffffffffffffff1673ffffffffffffffffffffffffffffffffffffffff1673ffffffffffffffffffffffffffffffffffffffff1681526020016001820160009054906101000a900473ffffffffffffffffffffffffffffffffffffffff1673ffffffffffffffffffffffffffffffffffffffff1673ffffffffffffffffffffffffffffffffffffffff1681526020016002820160009054906101000a900473ffffffffffffffffffffffffffffffffffffffff1673ffffffffffffffffffffffffffffffffffffffff1673ffffffffffffffffffffffffffffffffffffffff168152602001600382015481526020016004820154815260200160058201548152602001600682015481525050905060fd600084815260200190815260200160002060009054906101000a900460ff1661041e576040517f08c379a0000000000000000000000000000000000000000000000000000000008152600401610415906126cc565b60405180910390fd5b6000828260800151610430919061271b565b90506000811015610476576040517f08c379a000000000000000000000000000000000000000000000000000000000815260040161046d9061279b565b60405180910390fd5b6000810361055a5760fc6000858152602001908152602001600020600080820160006101000a81549073ffffffffffffffffffffffffffffffffffffffff02191690556001820160006101000a81549073ffffffffffffffffffffffffffffffffffffffff02191690556002820160006101000a81549073ffffffffffffffffffffffffffffffffffffffff021916905560038201600090556004820160009055600582016000905560068201600090555050600060fd600086815260200190815260200160002060006101000a81548160ff021916908315150217905550610565565b808260800181815250505b6000826020015173ffffffffffffffffffffffffffffffffffffffff1663313ce5676040518163ffffffff1660e01b8152600401602060405180830381865afa1580156105b6573d6000803e3d6000fd5b505050506040513d601f19601f820116820180604052508101906105da91906127d0565b9050600081600a6105eb9190612930565b8460a00151866105fb919061297b565b610605919061297b565b9050600073ffffffffffffffffffffffffffffffffffffffff16846020015173ffffffffffffffffffffffffffffffffffffffff160361073757803414610681576040517f08c379a000000000000000000000000000000000000000000000000000000000815260040161067890612a09565b60405180910390fd5b6000846000015173ffffffffffffffffffffffffffffffffffffffff16346040516106ab90612a5a565b60006040518083038185875af1925050503d80600081146106e8576040519150601f19603f3d011682016040523d82523d6000602084013e6106ed565b606091505b5050905080610731576040517f08c379a000000000000000000000000000000000000000000000000000000000815260040161072890612abb565b60405180910390fd5b506107c1565b836020015173ffffffffffffffffffffffffffffffffffffffff166323b872dd338660000151846040518463ffffffff1660e01b815260040161077c93929190612aea565b6020604051808303816000875af115801561079b573d6000803e3d6000fd5b505050506040513d601f19601f820116820180604052508101906107bf9190612b4d565b505b6107d6846040015130338760600151896114d6565b505050505050565b60006040518060e001604052803373ffffffffffffffffffffffffffffffffffffffff1681526020018473ffffffffffffffffffffffffffffffffffffffff1681526020018773ffffffffffffffffffffffffffffffffffffffff168152602001868152602001858152602001838152602001428152509050600073ffffffffffffffffffffffffffffffffffffffff16816020015173ffffffffffffffffffffffffffffffffffffffff16146108f2576108b2816020015173ffffffffffffffffffffffffffffffffffffffff1661168e565b6108f1576040517f08c379a00000000000000000000000000000000000000000000000000000000081526004016108e890612bc6565b60405180910390fd5b5b60006108fd826116e0565b905061091c8260400151836000015130856060015186608001516114d6565b7f918554b6bd6e2895ce6553de5de0e1a69db5289aa0e4fe193a0dcd1f143474778160405161094b91906124df565b60405180910390a150505050505050565b7f000000000000000000000000000000000000000000000000000000000000000073ffffffffffffffffffffffffffffffffffffffff163073ffffffffffffffffffffffffffffffffffffffff16036109ea576040517f08c379a00000000000000000000000000000000000000000000000000000000081526004016109e190612c58565b60405180910390fd5b7f000000000000000000000000000000000000000000000000000000000000000073ffffffffffffffffffffffffffffffffffffffff16610a29611832565b73ffffffffffffffffffffffffffffffffffffffff1614610a7f576040517f08c379a0000000000000000000000000000000000000000000000000000000008152600401610a7690612cea565b60405180910390fd5b610a8881611889565b610ae181600067ffffffffffffffff811115610aa757610aa6612349565b5b6040519080825280601f01601f191660200182016040528015610ad95781602001600182028036833780820191505090505b506000611894565b50565b7f000000000000000000000000000000000000000000000000000000000000000073ffffffffffffffffffffffffffffffffffffffff163073ffffffffffffffffffffffffffffffffffffffff1603610b72576040517f08c379a0000000000000000000000000000000000000000000000000000000008152600401610b6990612c58565b60405180910390fd5b7f000000000000000000000000000000000000000000000000000000000000000073ffffffffffffffffffffffffffffffffffffffff16610bb1611832565b73ffffffffffffffffffffffffffffffffffffffff1614610c07576040517f08c379a0000000000000000000000000000000000000000000000000000000008152600401610bfe90612cea565b60405180910390fd5b610c1082611889565b610c1c82826001611894565b5050565b60007f000000000000000000000000000000000000000000000000000000000000000073ffffffffffffffffffffffffffffffffffffffff163073ffffffffffffffffffffffffffffffffffffffff1614610cb0576040517f08c379a0000000000000000000000000000000000000000000000000000000008152600401610ca790612d7c565b60405180910390fd5b7f360894a13ba1a3210667c828492db98dca3e2076cc3735a920a3ca505d382bbc60001b905090565b610ce1611a02565b610ceb6000611a80565b565b600060fc60008381526020019081526020016000206040518060e00160405290816000820160009054906101000a900473ffffffffffffffffffffffffffffffffffffffff1673ffffffffffffffffffffffffffffffffffffffff1673ffffffffffffffffffffffffffffffffffffffff1681526020016001820160009054906101000a900473ffffffffffffffffffffffffffffffffffffffff1673ffffffffffffffffffffffffffffffffffffffff1673ffffffffffffffffffffffffffffffffffffffff1681526020016002820160009054906101000a900473ffffffffffffffffffffffffffffffffffffffff1673ffffffffffffffffffffffffffffffffffffffff1673ffffffffffffffffffffffffffffffffffffffff168152602001600382015481526020016004820154815260200160058201548152602001600682015481525050905060fd600083815260200190815260200160002060009054906101000a900460ff16610e99576040517f08c379a0000000000000000000000000000000000000000000000000000000008152600401610e90906126cc565b60405180910390fd5b806000015173ffffffffffffffffffffffffffffffffffffffff163373ffffffffffffffffffffffffffffffffffffffff1614610f0b576040517f08c379a0000000000000000000000000000000000000000000000000000000008152600401610f0290612de8565b60405180910390fd5b60fc6000838152602001908152602001600020600080820160006101000a81549073ffffffffffffffffffffffffffffffffffffffff02191690556001820160006101000a81549073ffffffffffffffffffffffffffffffffffffffff02191690556002820160006101000a81549073ffffffffffffffffffffffffffffffffffffffff021916905560038201600090556004820160009055600582016000905560068201600090555050600060fd600084815260200190815260200160002060006101000a81548160ff021916908315150217905550610fff8160400151308360000151846060015185608001516114d6565b7f30ad15c39984aa59d60d4089cbbbaa503c4c9e0fa0e3bdf62a5bab180fcb974d8260405161102e91906124df565b60405180910390a15050565b60008060019054906101000a900460ff1615905080801561106b5750600160008054906101000a900460ff1660ff16105b80611098575061107a30611b46565b1580156110975750600160008054906101000a900460ff1660ff16145b5b6110d7576040517f08c379a00000000000000000000000000000000000000000000000000000000081526004016110ce90612e7a565b60405180910390fd5b60016000806101000a81548160ff021916908360ff1602179055508015611114576001600060016101000a81548160ff0219169083151502179055505b61111c611b69565b611124611bc1565b61112c611c22565b80156111855760008060016101000a81548160ff0219169083151502179055507f7f26b83ff96e1f2b6a682f133852f6798a09c465da95921460cefb3847402498600160405161117c9190612eec565b60405180910390a15b50565b600060c960009054906101000a900473ffffffffffffffffffffffffffffffffffffffff16905090565b60fe60008673ffffffffffffffffffffffffffffffffffffffff1673ffffffffffffffffffffffffffffffffffffffff16815260200190815260200160002060009054906101000a900460ff1661123e576040517f08c379a000000000000000000000000000000000000000000000000000000000815260040161123590612f53565b60405180910390fd5b61125d8573ffffffffffffffffffffffffffffffffffffffff16611c73565b1561131957600183146112a5576040517f08c379a000000000000000000000000000000000000000000000000000000000815260040161129c90612fbf565b60405180910390fd5b8473ffffffffffffffffffffffffffffffffffffffff1663d204c45e3384846040518463ffffffff1660e01b81526004016112e29392919061300c565b600060405180830381600087803b1580156112fc57600080fd5b505af1158015611310573d6000803e3d6000fd5b505050506113f1565b6113388573ffffffffffffffffffffffffffffffffffffffff16611cc5565b156113b5578473ffffffffffffffffffffffffffffffffffffffff1663a4b645eb33868686866040518663ffffffff1660e01b815260040161137e959493929190613072565b600060405180830381600087803b15801561139857600080fd5b505af11580156113ac573d6000803e3d6000fd5b505050506113f0565b6040517f08c379a00000000000000000000000000000000000000000000000000000000081526004016113e79061311f565b60405180910390fd5b5b7f25b428dfde728ccfaddad7e29e4ac23c24ed7fd1a6e3e3f91894a9a073f5dfff8585856040516114249392919061313f565b60405180910390a15050505050565b60fe6020528060005260406000206000915054906101000a900460ff1681565b61145b611a02565b600073ffffffffffffffffffffffffffffffffffffffff168173ffffffffffffffffffffffffffffffffffffffff16036114ca576040517f08c379a00000000000000000000000000000000000000000000000000000000081526004016114c1906131e8565b60405180910390fd5b6114d381611a80565b50565b6114f58573ffffffffffffffffffffffffffffffffffffffff16611c73565b156115b1576001811461153d576040517f08c379a000000000000000000000000000000000000000000000000000000000815260040161153490613254565b60405180910390fd5b8473ffffffffffffffffffffffffffffffffffffffff166342842e0e8585856040518463ffffffff1660e01b815260040161157a93929190612aea565b600060405180830381600087803b15801561159457600080fd5b505af11580156115a8573d6000803e3d6000fd5b50505050611687565b6115d08573ffffffffffffffffffffffffffffffffffffffff16611cc5565b1561164b578473ffffffffffffffffffffffffffffffffffffffff1663f242432a858585856040518563ffffffff1660e01b81526004016116149493929190613274565b600060405180830381600087803b15801561162e57600080fd5b505af1158015611642573d6000803e3d6000fd5b50505050611686565b6040517f08c379a000000000000000000000000000000000000000000000000000000000815260040161167d90613318565b60405180910390fd5b5b5050505050565b60006116d97f36372b07000000000000000000000000000000000000000000000000000000008373ffffffffffffffffffffffffffffffffffffffff16611d1790919063ffffffff16565b9050919050565b60006116eb82611d3c565b90508160fc600083815260200190815260200160002060008201518160000160006101000a81548173ffffffffffffffffffffffffffffffffffffffff021916908373ffffffffffffffffffffffffffffffffffffffff16021790555060208201518160010160006101000a81548173ffffffffffffffffffffffffffffffffffffffff021916908373ffffffffffffffffffffffffffffffffffffffff16021790555060408201518160020160006101000a81548173ffffffffffffffffffffffffffffffffffffffff021916908373ffffffffffffffffffffffffffffffffffffffff160217905550606082015181600301556080820151816004015560a0820151816005015560c08201518160060155905050600160fd600083815260200190815260200160002060006101000a81548160ff021916908315150217905550919050565b60006118607f360894a13ba1a3210667c828492db98dca3e2076cc3735a920a3ca505d382bbc60001b611d94565b60000160009054906101000a900473ffffffffffffffffffffffffffffffffffffffff16905090565b611891611a02565b50565b6118c07f4910fdfa16fed3260ed0e7147f7cc6da11a60208b5b9406d12a635614ffd914360001b611d9e565b60000160009054906101000a900460ff16156118e4576118df83611da8565b6119fd565b8273ffffffffffffffffffffffffffffffffffffffff166352d1902d6040518163ffffffff1660e01b8152600401602060405180830381865afa92505050801561194c57506040513d601f19601f82011682018060405250810190611949919061334d565b60015b61198b576040517f08c379a0000000000000000000000000000000000000000000000000000000008152600401611982906133ec565b60405180910390fd5b7f360894a13ba1a3210667c828492db98dca3e2076cc3735a920a3ca505d382bbc60001b81146119f0576040517f08c379a00000000000000000000000000000000000000000000000000000000081526004016119e79061347e565b60405180910390fd5b506119fc838383611e61565b5b505050565b611a0a611e8d565b73ffffffffffffffffffffffffffffffffffffffff16611a28611188565b73ffffffffffffffffffffffffffffffffffffffff1614611a7e576040517f08c379a0000000000000000000000000000000000000000000000000000000008152600401611a75906134ea565b60405180910390fd5b565b600060c960009054906101000a900473ffffffffffffffffffffffffffffffffffffffff1690508160c960006101000a81548173ffffffffffffffffffffffffffffffffffffffff021916908373ffffffffffffffffffffffffffffffffffffffff1602179055508173ffffffffffffffffffffffffffffffffffffffff168173ffffffffffffffffffffffffffffffffffffffff167f8be0079c531659141344cd1fd0a4f28419497f9722a3daafe3b4186f6b6457e060405160405180910390a35050565b6000808273ffffffffffffffffffffffffffffffffffffffff163b119050919050565b600060019054906101000a900460ff16611bb8576040517f08c379a0000000000000000000000000000000000000000000000000000000008152600401611baf9061357c565b60405180910390fd5b60018081905550565b600060019054906101000a900460ff16611c10576040517f08c379a0000000000000000000000000000000000000000000000000000000008152600401611c079061357c565b60405180910390fd5b611c20611c1b611e8d565b611a80565b565b600060019054906101000a900460ff16611c71576040517f08c379a0000000000000000000000000000000000000000000000000000000008152600401611c689061357c565b60405180910390fd5b565b6000611cbe7f80ac58cd000000000000000000000000000000000000000000000000000000008373ffffffffffffffffffffffffffffffffffffffff16611d1790919063ffffffff16565b9050919050565b6000611d107fd9b67a26000000000000000000000000000000000000000000000000000000008373ffffffffffffffffffffffffffffffffffffffff16611d1790919063ffffffff16565b9050919050565b6000611d2283611e95565b8015611d345750611d338383611ee2565b5b905092915050565b6000816000015182602001518360400151846060015185608001518660a001518760c00151604051602001611d779796959493929190613605565b604051602081830303815290604052805190602001209050919050565b6000819050919050565b6000819050919050565b611db181611b46565b611df0576040517f08c379a0000000000000000000000000000000000000000000000000000000008152600401611de7906136f8565b60405180910390fd5b80611e1d7f360894a13ba1a3210667c828492db98dca3e2076cc3735a920a3ca505d382bbc60001b611d94565b60000160006101000a81548173ffffffffffffffffffffffffffffffffffffffff021916908373ffffffffffffffffffffffffffffffffffffffff16021790555050565b611e6a83611fa1565b600082511180611e775750805b15611e8857611e868383611ff0565b505b505050565b600033905090565b6000611ec1827f01ffc9a700000000000000000000000000000000000000000000000000000000611ee2565b8015611edb5750611ed98263ffffffff60e01b611ee2565b155b9050919050565b6000806301ffc9a760e01b83604051602401611efe9190613753565b604051602081830303815290604052907bffffffffffffffffffffffffffffffffffffffffffffffffffffffff19166020820180517bffffffffffffffffffffffffffffffffffffffffffffffffffffffff838183161783525050505090506000806000602060008551602087018a617530fa92503d91506000519050828015611f89575060208210155b8015611f955750600081115b94505050505092915050565b611faa81611da8565b8073ffffffffffffffffffffffffffffffffffffffff167fbc7cd75a20ee27fd9adebab32041f755214dbc6bffa90cc0225b39da2e5c2d3b60405160405180910390a250565b606061201583836040518060600160405280602781526020016138be6027913961201d565b905092915050565b60606000808573ffffffffffffffffffffffffffffffffffffffff168560405161204791906137d4565b600060405180830381855af49150503d8060008114612082576040519150601f19603f3d011682016040523d82523d6000602084013e612087565b606091505b5091509150612098868383876120a3565b925050509392505050565b606083156121055760008351036120fd576120bd85611b46565b6120fc576040517f08c379a00000000000000000000000000000000000000000000000000000000081526004016120f390613837565b60405180910390fd5b5b829050612110565b61210f8383612118565b5b949350505050565b60008251111561212b5781518083602001fd5b806040517f08c379a000000000000000000000000000000000000000000000000000000000815260040161215f919061389b565b60405180910390fd5b6000604051905090565b600080fd5b600080fd5b6000819050919050565b61218f8161217c565b811461219a57600080fd5b50565b6000813590506121ac81612186565b92915050565b6000819050919050565b6121c5816121b2565b81146121d057600080fd5b50565b6000813590506121e2816121bc565b92915050565b600080604083850312156121ff576121fe612172565b5b600061220d8582860161219d565b925050602061221e858286016121d3565b9150509250929050565b600073ffffffffffffffffffffffffffffffffffffffff82169050919050565b600061225382612228565b9050919050565b61226381612248565b811461226e57600080fd5b50565b6000813590506122808161225a565b92915050565b600080600080600060a086880312156122a2576122a1612172565b5b60006122b088828901612271565b95505060206122c1888289016121d3565b94505060406122d2888289016121d3565b93505060606122e388828901612271565b92505060806122f4888289016121d3565b9150509295509295909350565b60006020828403121561231757612316612172565b5b600061232584828501612271565b91505092915050565b600080fd5b600080fd5b6000601f19601f8301169050919050565b7f4e487b7100000000000000000000000000000000000000000000000000000000600052604160045260246000fd5b61238182612338565b810181811067ffffffffffffffff821117156123a05761239f612349565b5b80604052505050565b60006123b3612168565b90506123bf8282612378565b919050565b600067ffffffffffffffff8211156123df576123de612349565b5b6123e882612338565b9050602081019050919050565b82818337600083830152505050565b6000612417612412846123c4565b6123a9565b90508281526020810184848401111561243357612432612333565b5b61243e8482856123f5565b509392505050565b600082601f83011261245b5761245a61232e565b5b813561246b848260208601612404565b91505092915050565b6000806040838503121561248b5761248a612172565b5b600061249985828601612271565b925050602083013567ffffffffffffffff8111156124ba576124b9612177565b5b6124c685828601612446565b9150509250929050565b6124d98161217c565b82525050565b60006020820190506124f460008301846124d0565b92915050565b6000602082840312156125105761250f612172565b5b600061251e8482850161219d565b91505092915050565b61253081612248565b82525050565b600060208201905061254b6000830184612527565b92915050565b600080fd5b600080fd5b60008083601f8401126125715761257061232e565b5b8235905067ffffffffffffffff81111561258e5761258d612551565b5b6020830191508360018202830111156125aa576125a9612556565b5b9250929050565b6000806000806000608086880312156125cd576125cc612172565b5b60006125db88828901612271565b95505060206125ec888289016121d3565b94505060406125fd888289016121d3565b935050606086013567ffffffffffffffff81111561261e5761261d612177565b5b61262a8882890161255b565b92509250509295509295909350565b60008115159050919050565b61264e81612639565b82525050565b60006020820190506126696000830184612645565b92915050565b600082825260208201905092915050565b7f494e4143544956455f4f52444552000000000000000000000000000000000000600082015250565b60006126b6600e8361266f565b91506126c182612680565b602082019050919050565b600060208201905081810360008301526126e5816126a9565b9050919050565b7f4e487b7100000000000000000000000000000000000000000000000000000000600052601160045260246000fd5b6000612726826121b2565b9150612731836121b2565b9250828203905081811115612749576127486126ec565b5b92915050565b7f4e6f7420656e6f756768204e4654000000000000000000000000000000000000600082015250565b6000612785600e8361266f565b91506127908261274f565b602082019050919050565b600060208201905081810360008301526127b481612778565b9050919050565b6000815190506127ca816121bc565b92915050565b6000602082840312156127e6576127e5612172565b5b60006127f4848285016127bb565b91505092915050565b60008160011c9050919050565b6000808291508390505b6001851115612854578086048111156128305761282f6126ec565b5b600185161561283f5780820291505b808102905061284d856127fd565b9450612814565b94509492505050565b60008261286d5760019050612929565b8161287b5760009050612929565b8160018114612891576002811461289b576128ca565b6001915050612929565b60ff8411156128ad576128ac6126ec565b5b8360020a9150848211156128c4576128c36126ec565b5b50612929565b5060208310610133831016604e8410600b84101617156128ff5782820a9050838111156128fa576128f96126ec565b5b612929565b61290c848484600161280a565b92509050818404811115612923576129226126ec565b5b81810290505b9392505050565b600061293b826121b2565b9150612946836121b2565b92506129737fffffffffffffffffffffffffffffffffffffffffffffffffffffffffffffffff848461285d565b905092915050565b6000612986826121b2565b9150612991836121b2565b925082820261299f816121b2565b915082820484148315176129b6576129b56126ec565b5b5092915050565b7f56414c55455f4e4f545f4d415443480000000000000000000000000000000000600082015250565b60006129f3600f8361266f565b91506129fe826129bd565b602082019050919050565b60006020820190508181036000830152612a22816129e6565b9050919050565b600081905092915050565b50565b6000612a44600083612a29565b9150612a4f82612a34565b600082019050919050565b6000612a6582612a37565b9150819050919050565b7f4641494c5f5452414e534645525f455448000000000000000000000000000000600082015250565b6000612aa560118361266f565b9150612ab082612a6f565b602082019050919050565b60006020820190508181036000830152612ad481612a98565b9050919050565b612ae4816121b2565b82525050565b6000606082019050612aff6000830186612527565b612b0c6020830185612527565b612b196040830184612adb565b949350505050565b612b2a81612639565b8114612b3557600080fd5b50565b600081519050612b4781612b21565b92915050565b600060208284031215612b6357612b62612172565b5b6000612b7184828501612b38565b91505092915050565b7f494e56414c49445f544f4b454e5f414444524553530000000000000000000000600082015250565b6000612bb060158361266f565b9150612bbb82612b7a565b602082019050919050565b60006020820190508181036000830152612bdf81612ba3565b9050919050565b7f46756e6374696f6e206d7573742062652063616c6c6564207468726f7567682060008201527f64656c656761746563616c6c0000000000000000000000000000000000000000602082015250565b6000612c42602c8361266f565b9150612c4d82612be6565b604082019050919050565b60006020820190508181036000830152612c7181612c35565b9050919050565b7f46756e6374696f6e206d7573742062652063616c6c6564207468726f7567682060008201527f6163746976652070726f78790000000000000000000000000000000000000000602082015250565b6000612cd4602c8361266f565b9150612cdf82612c78565b604082019050919050565b60006020820190508181036000830152612d0381612cc7565b9050919050565b7f555550535570677261646561626c653a206d757374206e6f742062652063616c60008201527f6c6564207468726f7567682064656c656761746563616c6c0000000000000000602082015250565b6000612d6660388361266f565b9150612d7182612d0a565b604082019050919050565b60006020820190508181036000830152612d9581612d59565b9050919050565b7f4f4e4c595f53454c4c4552000000000000000000000000000000000000000000600082015250565b6000612dd2600b8361266f565b9150612ddd82612d9c565b602082019050919050565b60006020820190508181036000830152612e0181612dc5565b9050919050565b7f496e697469616c697a61626c653a20636f6e747261637420697320616c72656160008201527f647920696e697469616c697a6564000000000000000000000000000000000000602082015250565b6000612e64602e8361266f565b9150612e6f82612e08565b604082019050919050565b60006020820190508181036000830152612e9381612e57565b9050919050565b6000819050919050565b600060ff82169050919050565b6000819050919050565b6000612ed6612ed1612ecc84612e9a565b612eb1565b612ea4565b9050919050565b612ee681612ebb565b82525050565b6000602082019050612f016000830184612edd565b92915050565b7f4f4e4c592044454641554c5420434f4c4c454354494f4e530000000000000000600082015250565b6000612f3d60188361266f565b9150612f4882612f07565b602082019050919050565b60006020820190508181036000830152612f6c81612f30565b9050919050565b7f4f4e4c595f4f4e455f4552433732310000000000000000000000000000000000600082015250565b6000612fa9600f8361266f565b9150612fb482612f73565b602082019050919050565b60006020820190508181036000830152612fd881612f9c565b9050919050565b6000612feb838561266f565b9350612ff88385846123f5565b61300183612338565b840190509392505050565b60006040820190506130216000830186612527565b8181036020830152613034818486612fdf565b9050949350505050565b600082825260208201905092915050565b600061305c60008361303e565b915061306782612a34565b600082019050919050565b600060a0820190506130876000830188612527565b6130946020830187612adb565b6130a16040830186612adb565b81810360608301526130b4818486612fdf565b905081810360808301526130c78161304f565b90509695505050505050565b7f494e56414c494420414444524553530000000000000000000000000000000000600082015250565b6000613109600f8361266f565b9150613114826130d3565b602082019050919050565b60006020820190508181036000830152613138816130fc565b9050919050565b60006060820190506131546000830186612527565b6131616020830185612adb565b61316e6040830184612adb565b949350505050565b7f4f776e61626c653a206e6577206f776e657220697320746865207a65726f206160008201527f6464726573730000000000000000000000000000000000000000000000000000602082015250565b60006131d260268361266f565b91506131dd82613176565b604082019050919050565b60006020820190508181036000830152613201816131c5565b9050919050565b7f494e56414c49445f4e46545f414d4f554e540000000000000000000000000000600082015250565b600061323e60128361266f565b915061324982613208565b602082019050919050565b6000602082019050818103600083015261326d81613231565b9050919050565b600060a0820190506132896000830187612527565b6132966020830186612527565b6132a36040830185612adb565b6132b06060830184612adb565b81810360808301526132c18161304f565b905095945050505050565b7f494e56414c49445f434f4c4c454354494f4e5f41444452455353000000000000600082015250565b6000613302601a8361266f565b915061330d826132cc565b602082019050919050565b60006020820190508181036000830152613331816132f5565b9050919050565b60008151905061334781612186565b92915050565b60006020828403121561336357613362612172565b5b600061337184828501613338565b91505092915050565b7f45524331393637557067726164653a206e657720696d706c656d656e7461746960008201527f6f6e206973206e6f742055555053000000000000000000000000000000000000602082015250565b60006133d6602e8361266f565b91506133e18261337a565b604082019050919050565b60006020820190508181036000830152613405816133c9565b9050919050565b7f45524331393637557067726164653a20756e737570706f727465642070726f7860008201527f6961626c65555549440000000000000000000000000000000000000000000000602082015250565b600061346860298361266f565b91506134738261340c565b604082019050919050565b600060208201905081810360008301526134978161345b565b9050919050565b7f4f776e61626c653a2063616c6c6572206973206e6f7420746865206f776e6572600082015250565b60006134d460208361266f565b91506134df8261349e565b602082019050919050565b60006020820190508181036000830152613503816134c7565b9050919050565b7f496e697469616c697a61626c653a20636f6e7472616374206973206e6f74206960008201527f6e697469616c697a696e67000000000000000000000000000000000000000000602082015250565b6000613566602b8361266f565b91506135718261350a565b604082019050919050565b6000602082019050818103600083015261359581613559565b9050919050565b60008160601b9050919050565b60006135b48261359c565b9050919050565b60006135c6826135a9565b9050919050565b6135de6135d982612248565b6135bb565b82525050565b6000819050919050565b6135ff6135fa826121b2565b6135e4565b82525050565b6000613611828a6135cd565b60148201915061362182896135cd565b60148201915061363182886135cd565b60148201915061364182876135ee565b60208201915061365182866135ee565b60208201915061366182856135ee565b60208201915061367182846135ee565b60208201915081905098975050505050505050565b7f455243313936373a206e657720696d706c656d656e746174696f6e206973206e60008201527f6f74206120636f6e747261637400000000000000000000000000000000000000602082015250565b60006136e2602d8361266f565b91506136ed82613686565b604082019050919050565b60006020820190508181036000830152613711816136d5565b9050919050565b60007fffffffff0000000000000000000000000000000000000000000000000000000082169050919050565b61374d81613718565b82525050565b60006020820190506137686000830184613744565b92915050565b600081519050919050565b60005b8381101561379757808201518184015260208101905061377c565b60008484015250505050565b60006137ae8261376e565b6137b88185612a29565b93506137c8818560208601613779565b80840191505092915050565b60006137e082846137a3565b915081905092915050565b7f416464726573733a2063616c6c20746f206e6f6e2d636f6e7472616374000000600082015250565b6000613821601d8361266f565b915061382c826137eb565b602082019050919050565b6000602082019050818103600083015261385081613814565b9050919050565b600081519050919050565b600061386d82613857565b613877818561266f565b9350613887818560208601613779565b61389081612338565b840191505092915050565b600060208201905081810360008301526138b58184613862565b90509291505056fe416464726573733a206c6f772d6c6576656c2064656c65676174652063616c6c206661696c6564a264697066735822122014c3a203b107b7376e9b61a9f77229f1baa0311889722da7aff9947731ffe69964736f6c63430008120033",
  "linkReferences": {},
  "deployedLinkReferences": {}
}